:100000000C942A000C943C000C943C000C943C0092
:100010000C943C000C943C000C943C000C943C0070
:100020000C943C000C943C000C943C000C943E005E
:100030000C943C000C943C000C943C000C943C0050
:100040000C943C000C943C000C943C000C943C0040
:100050000C943C0011241FBECFE5D8E0DEBFCDBF1D
:1000600010E0A0E6B0E001C01D92A236B107E1F7B2
:100070000E94AB000C94C6010C9400001F920F92DA
:100080000FB60F9211248F939F93809160009091EF
:100090006100019690936100809360009F918F9121
:1000A0000F900FBE0F901F901895782F12BE83B738
:1000B000826083BF81E089BF789484EF91E028EC6F
:1000C00030E0F9013197F1F70197D9F718BA3AE121
:1000D000832F8A95F1F728B341E050E0CA0102C0AE
:1000E000880F991F7A95E2F7282B28BB3A95F1F7EC
:1000F00028B38095822388BB02C0440F551F6A95A0
:10010000E2F786B390E084239523892BD1F312BEC6
:10011000109261001092600086B390E084239523D2
:10012000892BD1F722B730E0809160009091610077
:10013000F894982F8827820F931F6AE370E00E943B
:100140009F01882777FD8095982F0E9417010E94B4
:10015000E400CB0108951F93CF93DF9388EA87BB18
:100160008FEF84BB10E2C8ECD0E087E090E066E05F
:1001700070E00E945500AA2797FDA095BA2FBC01F8
:10018000CD010E94170120E030E040E251E40E94DE
:10019000E000181694F01ABB1BBB88EE93E0FE013A
:1001A0003197F1F70197D9F71BBA88EE93E0FE017A
:1001B0003197F1F70197D9F7D8CF1ABA1BBAD5CF33
:1001C00071D008F481E0089504D06894B111B1C0F1
:1001D000089594D088F09F5790F0B92F9927B75180
:1001E000A0F0D1F0660F771F881F991F1AF0BA95FB
:1001F000C9F712C0B13081F09BD0B1E0089598C02A
:10020000672F782F8827B85F39F0B93FCCF38695F0
:1002100077956795B395D9F73EF49095809570954D
:1002200061957F4F8F4F9F4F0895E89409C097FBCA
:100230003EF490958095709561957F4F8F4F9F4FBD
:100240009923A9F0F92F96E9BB279395F695879501
:1002500077956795B795F111F8CFFAF4BB0F11F4C4
:1002600060FF1BC06F5F7F4F8F4F9F4F16C088236B
:1002700011F096E911C0772321F09EE8872F762FA1
:1002800005C0662371F096E8862F70E060E02AF0E2
:100290009A95660F771F881FDAF7880F96958795CE
:1002A00097F90895990F0008550FAA0BE0E8FEEFA3
:1002B00016161706E807F907C0F012161306E4072A
:1002C000F50798F0621B730B840B950B39F40A2623
:1002D00061F0232B242B252B21F408950A2609F401
:1002E000A140A6958FEF811D811D089557FD90585F
:1002F000440F551F59F05F3F71F04795880F97FBEA
:10030000991F61F09F3F79F08795089512161306A3
:100310001406551FF2CF4695F1DF08C016161706D2
:100320001806991FF1CF8695710561050894089507
:10033000E894BB2766277727CB0197F9089597FBA9
:10034000092E07260AD077FD04D00CD006D0002055
:100350001AF4709561957F4F0895F6F79095819501
:100360009F4F0895AA1BBB1B51E107C0AA1FBB1FCB
:10037000A617B70710F0A61BB70B881F991F5A9531
:10038000A9F780959095BC01CD010895F894FFCF11
:00000001FF
